:100000000C9434000C943E000C943E000C943E0082
:100010000C943E000C943E000C943E000C943E0068
:100020000C943E000C943E000C943E000C943E0058
:100030000C943E000C943E000C943E000C943E0048
:100040000C943E000C943E000C943E000C943E0038
:100050000C943E000C943E000C943E000C943E0028
:100060000C943E000C943E0011241FBECFEFD8E04C
:10007000DEBFCDBF0E9440000C9458000C940000DD
:100080008AB18AB9259A30E289B1282F2071982F38
:10009000987231F0222341F0983221F482FD02C09F
:1000A00035B9F2CF15B8F0CF83FFF6CF35B9ECCF25
:0400B000F894FFCFF2
:00000001FF
